:100000000C9446000C9400000C9400000C9400002A
:100010000C9400000C9400000C9400000C94000060
:100020000C9400000C9400000C9400000C94000050
:100030000C9400000C9400000C9400000C94000040
:100040000C9400000C9400000C9400000C94000030
:100050000C9400000C9400000C9400000C94000020
:100060000C9400000C9400000C9400000C94000010
:100070000C9400000C9400000C9400000C94000000
:100080000C9400000C9400000C940000F894EE27EF
:10009000ECBBF1E0F5BFE5BFE0936C008DE0A2E0C2
:1000A000BB27ED938A95E9F780E090E1A0E0B1E00D
:1000B000ED930197E9F78BBFEFEFEDBFE0E1EEBF06
:1000C000C0E0D5E00C946400159A8A98929A8B98B7
:1000D000939A8C98949A8D98959A1D9A839B1D98C3
:1000E000859B1D9A82990FC0552453B8AAE0B0E0B1
:1000F0000E9496005394839B04C0849B02C0859900
:1001000001C001C0F2CF84990FC0552453B8A1E0BB
:10011000B0E00E9496005394839B04C0829B02C06F
:10012000859901C001C0F2CFD9CFFFCF109639F029
:1001300080ED97E00197F1F7A8951197C9F7089519
:00000001FF
