:080000000C94B5000C94000003
:100008000C9400000C9400000C9400000C94000068
:100018000C9400000C9400000C9400000C94000058
:100028000C9400000C9400000C9400000C94000048
:100038000C9400000C9400000C9400000C94000038
:100048000C9400000C9400000C9400000C94000028
:100058000C9400000C9400000C9400000C94000018
:100068000C9400000C9400000C9400000C94000008
:100078000C9400000C9400000C9400000C940000F8
:100088000C9400001027E80364000A000100001027
:1000980000011000010001001400C80048454C4C44
:1000A8004F20574F524C4420202020003E5472616C
:1000B800692073616E67207068616900205068610B
:1000C800692073616E6720747261690020547261DF
:1000D800692073616E672070686169003E506861CD
:1000E800692073616E672074726169003E536372A0
:1000F8006F6C6C2074657874202020002043616E3A
:100108002067697561202020202020002053637219
:100118006F6C6C2074657874202020003E43616EFB
:1001280020676975612020202020200048454C4C1C
:100138004F20574F524C4420202020002020484573
:100148004C4C4F20574F524C4420200080C0060092
:1001580004009E000F000005A400020010055401D1
:100168000000F894EE27ECBBF1E0F5BFE5BFE093A3
:100178006C008DE0A2E0BB27ED938A95E9F780E05B
:1001880090E1A0E0B1E0ED930197E9F7E6E5F1E051
:1001980085919591009761F0A591B591059015907D
:1001A800BF01F00105900D920197E1F7FB01F0CF37
:1001B8008BBFEFEFEDBFE0E1EEBFC0E0D5E00C9400
:1001C800CF01F201309719F4E1E0F0E03EC0E130F0
:1001D800A0E0FA0751F40E948E02A4EBB0E00E945E
:1001E8009502A4ECB0E053D131C0E230A0E0FA07A8
:1001F80051F40E948E02A4EDB0E00E949502A4EE94
:10020800B0E045D123C0E330A0E0FA0751F40E94E2
:100218008E02A4EFB0E00E949502A4E0B1E037D1CD
:1002280015C0E430A0E0FA0751F40E948E02A4E160
:10023800B1E00E949502A4E2B1E029D107C0E530FF
:10024800A0E0FA0719F4E4E0F0E02F010895FCD0EB
:10025800A0900E05EEE0BE2EE1E0BE1660F00E9412
:100268009C023197E050FB4FE081EC93D3010E9450
:10027800E202BA94F1CFA0920005849902C0E4D0BA
:1002880001C0E6CF0895E0D0A0900005BB24EFE0C0
:10029800BE1658F40E949C02EF5FFA4FE081EC937F
:1002A800D3010E94E202B394F2CFA0920E05849B80
:1002B80001C0EACF08951A930A9300E010E0C4D071
:1002C800BB24EFE0BE1648F40E94AE02849903C036
:1002D8000F5F1F4F02C0B394F4CF0E94BB02A1F17D
:1002E800BB24EFE0BE1648F40E94C002849903C004
:1002F8000F5F1F4F02C0B394F4CF0E94BB0221F1DD
:10030800EFE0BE2EE0E0EB1548F40E94C0028499AD
:1003180003C00F5F1F4F02C0BA94F4CF0E94BB0204
:1003280099F0EFE0BE2EE0E0EB1548F40E94AE0233
:10033800849903C00F5F1F4F02C0BA94F4CF0E9484
:10034800BB0211F08499BCCF0991199108957CD012
:10035800E0E0EA93A0E06BD0A4E4B1E098D08499FF
:10036800F7CF0895F201E130A0E0FA0711F46FDF4A
:1003780011C0E230A0E0FA0711F485DF0BC0E330CA
:10038800A0E0FA0711F497DF05C0E430A0E0FA070F
:1003980009F4DDDF0895A0E18DD08A98929A8B98B0
:1003A800939A8C98949A8D98959A0BDF859904C0A6
:1003B800F20131960E94CD02839904C0F20131976F
:1003C8000E94CD02829BCEDFF0CFFFCFAA93E881B7
:1003D800E07111F0DB9A01C0DB98E881E07211F05E
:1003E800DA9A01C0DA98E881E07411F0D99A01C06C
:1003F800D998E881E07811F0D89A01C0D8988DE0B2
:100408008A95F1F7DC9A8DE08A95F1F7DC988DE012
:100418008A95F1F77DC0AA93A881D8DFE881E29593
:10042800E883A881D3DF85E88A95F1F771C0AA939C
:10043800E881F0E0E05FFA4FE081A981AE0FEBDFE1
:10044800D980C88022960895A2E00E94D402ACE028
:10045800E2DFA1E00E94D402E0E0CE2EDE2E089575
:10046800AA93A881AA3021F0E0911405DE1648F07D
:10047800E0E0EA93C394AC2DDADFA881AA3009F44E
:1004880047C0D394DE9AA881C6DFDE9841C0BA93EC
:10049800AA931A93E981FA813196E983FA8331970D
:1004A800E4911E2FE03019F0A12FDADFF3CF188185
:1004B80023960895AA93D39AD29AD19AD09AD49A85
:1004C800D69AD59ADC98DE98DD98E881E0931405F1
:1004D800E058E0931205E881E054E0931305A4E1A5
:1004E800B0E00E94E2020E94DA020E94DA020E9450
:1004F800DA02A0E26BDF88EC90E00197F1F7A8E25E
:100508008ADFA4E088DFA5E886DFA6E084DF9CDF39
:10051800219608950E942802E0E0EA93A0E00C9456
:100528001B020E944B02E0E0EA93A1E00C941B023C
:10053800BA92A0E00E941B02EB2DF0E0E050FB4FC6
:10054800A0810E943402AB2DB0E0A050BB4FEB2D30
:10055800F0E008950E942802BA92A0E00E941B02CF
:10056800A4E3B1E00E944B02D4010C94E202E1E062
:10057800F0E0E017F10708950E942802BA92A1E07E
:100588000E941B02A4E3B1E00E944B02D4010C9428
:10059800E2022F010E94E500A4E6B0E00C94E2021A
:1005A8000E940F02A3E0B0E00C94E202A0E30E94D4
:1005B800EA0188EC90E00197F1F70895109639F078
:1005C80080ED97E00197F1F7A8951197C9F708957D
:00000001FF
