:040000000C94460016
:100004000C9400000C9400000C9400000C9400006C
:100014000C9400000C9400000C9400000C9400005C
:100024000C9400000C9400000C9400000C9400004C
:100034000C9400000C9400000C9400000C9400003C
:100044000C9400000C9400000C9400000C9400002C
:100054000C9400000C9400000C9400000C9400001C
:100064000C9400000C9400000C9400000C9400000C
:100074000C9400000C9400000C9400000C940000FC
:100084000C9400000C940000F894EE27ECBBF1E013
:10009400F5BFE5BFE0936C008DE0A2E0BB27ED93D4
:1000A4008A95E9F780E090E1A0E0B1E0ED93019753
:1000B400E9F78BBFEFEFEDBFE0E1EEBFC0E0D5E0C5
:1000C4000C946400E0E0EABBEBBBE0E2E7BBE0E0F9
:1000D400E8BBE4BBE5BBE1BBE2BBE2B9E3B9E09357
:1000E4006100E0936200E0936400E0936500E0BF88
:1000F400E3BFE2BFE1BFE2E8EFBDE8E1EEBDE0E06F
:10010400EDBDECBDEEE4E7BDE0E2E6BDE7E2EBBD4C
:10011400E0E1EABDE0E0E9BDE8BDE0937900E09309
:100124007800E5BDE4BDE3BDE0938B00E0938A0075
:10013400E0938900E0938800E0938100E0938000DD
:10014400E0938700E0938600E0938500E0938400C9
:10015400E0938300E0938200E7BFE0937D00E093A7
:100164006A00EABFE9BFEAB9E0939A00E0E8E8B9B7
:10017400E0E0E0BDE6B9EDB9E0937400FFCFFFCF56
:00000001FF
