:060000000C9446000C9474
:1000060000000C9400000C9400000C9400000C946A
:1000160000000C9400000C9400000C9400000C945A
:1000260000000C9400000C9400000C9400000C944A
:1000360000000C9400000C9400000C9400000C943A
:1000460000000C9400000C9400000C9400000C942A
:1000560000000C9400000C9400000C9400000C941A
:1000660000000C9400000C9400000C9400000C940A
:1000760000000C9400000C9400000C9400000C94FA
:1000860000000C940000F894EE27ECBBF1E0F5BFFD
:10009600E5BFE0936C008DE0A2E0BB27ED938A9567
:1000A600E9F780E090E1A0E0B1E0ED930197E9F790
:1000B6008BBFEFEFEDBFE0E1EEBFC0E0D5E00C9403
:1000C6006400159A8C98949A1D9A5524849926C092
:1000D6005394849905C0A4E6B0E00E949300F9CF3A
:1000E600E52DF0E0A3E0B0E00E94A1007E2EE1E065
:1000F600E71509F41D98E2E0E71509F41D9AE3E017
:10010600E71549F4442443B8AAE0B0E00E949300FE
:1001160043948499F8CF772009F41D9AD7CFFFCF5F
:10012600109639F080ED97E00197F1F7A8951197B1
:10013600C9F70895F195E195F0400895E894F7FF21
:1001460002C0F8DF6894EA23FB230EF4F3DF089578
:00000001FF
