:020000000C945E
:100002005C000C9400000C9400000C9400000C9412
:1000120000000C9400000C9400000C9400000C945E
:1000220000000C9400000C9400000C9400000C944E
:1000320000000C9400000C9400000C9400000C943E
:1000420000000C9400000C9400000C9400000C942E
:1000520000000C9400000C9400000C9400000C941E
:1000620000000C9400000C9400000C9400000C940E
:1000720000000C9400000C9400000C9400000C94FE
:1000820000000C9400000C9400001027E8036400A8
:100092000A000100001000011000010048454C4C0C
:1000A2004F20574F524C44202020200080C0020095
:1000B2000005AE000000F894EE27ECBBF1E0F5BFBE
:1000C200E5BFE0936C008DE0A2E0BB27ED938A953B
:1000D200E9F780E090E1A0E0B1E0ED930197E9F764
:1000E200E0EBF0E085919591009761F0A591B591D3
:1000F20005901590BF01F00105900D920197E1F76F
:10010200FB01F0CF8BBFEFEFEDBFE0E1EEBFC0E050
:10011200D5E00C948C00609780E1A0E0B0E0EEE9BD
:10012200F0E00E9492018A98929A8B98939A8C9806
:10013200949A8D98959AA0E190D06FD0839916C029
:1001420048805524EFE05E1648F45A92A0E00E94DF
:100152005D0131960E9470015394F4CFFE013E96E8
:100162004082859902C059D001C0EACF859915C055
:100172004E84EEE05E2EE1E05E1648F05A92A1E077
:100182000E945D0131970E9470015A94F4CF488217
:10019200839902C042D001C0EBCFCFCFFFCFAA9349
:1001A200E881E07111F0DB9A01C0DB98E881E0722E
:1001B20011F0DA9A01C0DA98E881E07411F0D99A64
:1001C20001C0D998E881E07811F0D89A01C0D89896
:1001D2008DE08A95F1F7DC9A8DE08A95F1F7DC984B
:1001E2008DE08A95F1F766C0AA93A881D8DFE881ED
:1001F200E295E883A881D3DF85E88A95F1F75AC0B2
:10020200AA93E881F0E0E050FB4FE081A981AE0FB4
:10021200EBDF6980988022960895A2E00E947A011D
:10022200ACE0E2DFA1E00E947A01E0E09E2E6E2EB9
:100232000895AA93A881AA3011F0681440F0E0E072
:10024200EA939394A92DDCDFA881AA3099F16394F3
:10025200DE9AA881C9DFDE982DC0AA93D39AD29ADA
:10026200D19AD09AD49AD69AD59ADC98DE98DD980B
:100272008880E881E058E0930205E881E054E09349
:100282000305A4E1B0E00E9488010E9480010E945F
:1002920080010E948001A0E282DF88EC90E0019759
:1002A200F1F7A8E2A1DFA4E09FDFA5E89DDFA6E0C9
:1002B2009BDFB3DF219608950E940101E52DF0E056
:1002C200DE01AE0FBF1FAC910E941A01E52DF0E0D6
:1002D200DE01EA0FFB1F0F01E52DF0E00895DE01BC
:1002E200AE0FBF1FEC91D001EC93A9E1B0E00C94EA
:1002F20088010E94F500A3E0B0E00C948801A0E31D
:100302000E94D00088EC90E00197F1F708951096D2
:1003120039F080ED97E00197F1F7A8951197C9F7A9
:100322000895AC0FBD1F05900D928A95E1F70895CF
:00000001FF
