:040000000C94560006
:100004000C9400000C9400000C9400000C9400006C
:100014000C9400000C9400000C9400000C9400005C
:100024000C9400000C9400000C9400000C9400004C
:100034000C9400000C9400000C9400000C948600B6
:100044000C9400000C9400000C9400000C9400002C
:100054000C9400000C9400000C9400000C9400001C
:100064000C9400000C9400000C9400000C9400000C
:100074000C9400000C9400000C9400000C940000FC
:100084000C9400000C94000064000000476F633A75
:100094002D393020646F000080C0040004008C00FF
:1000A400020000059C000000F894EE27ECBBF1E090
:1000B400F5BFE5BFE0936C008DE0A2E0BB27ED93B4
:1000C4008A95E9F780E090E1A0E0B1E0ED93019733
:1000D400E9F7EEE9F0E085919591009761F0A5913B
:1000E400B59105901590BF01F00105900D9201970F
:1000F400E1F7FB01F0CF8BBFEFEFEDBFE0E1EEBF27
:10010400C0E0D5E00C94A100EA93FA93EFB7EA9328
:10011400E0EBE2BFF30131963F01E0EDF7E0E615D5
:10012400F70511F4662477246414750410F4C59A51
:1001340001C0C598E991EFBFF991E9911895E0E004
:10014400EABBEBBBE7BBE8BBE4BBE5BBE1BBE2BBA3
:10015400E2B9E3B9E0936100E0936200E0936400E4
:10016400E0936500E0BFE1E0E3BFE0EBE2BFE0E085
:10017400E1BFEFBDEEBDEDBDECBDE7BDE6BDEBBD42
:10018400EABDE9BDE8BDE0937900E0937800E5BD00
:10019400E4BDE3BDE0938B00E0938A00E093890023
:1001A400E0938800E0938100E0938000E09387006F
:1001B400E0938600E0938500E0938400E09383005D
:1001C400E0938200E1E0E7BFE0E0E0937D00E093AC
:1001D4006A00EABFE9BFEAB9E0939A00E0E8E8B947
:1001E400E0E0E0BDE6B9EDB9E09374007894A0E1F5
:1001F4009DD0BD9AE0E0E1BBEFEFE2BB65D0E0E06B
:10020400EA93A0E054D0A0E9B0E07DD083990DC07A
:10021400A2E3B0E00E94D001F20131962F01E8EC94
:10022400F0E04E165F0608F02F0185990DC0A2E399
:10023400B0E00E94D001F20131972F01E4E6F0E032
:10024400E415F50508F02F01D9CFFFCFAA93E88173
:10025400E07111F0DB9A01C0DB98E881E07211F0E3
:10026400DA9A01C0DA98E881E07411F0D99A01C0F1
:10027400D998E881E07811F0D89A01C0D8988DE037
:100284008A95F1F7DC9A8DE08A95F1F7DC988DE098
:100294008A95F1F775C0AA93A881D8DFE881E29521
:1002A400E883A881D3DF85E88A95F1F769C0AA932A
:1002B400E881F0E0E050FB4FE081A981AE0FEBDF75
:1002C4009980888022960895A2E05CD0ACE0E3DFB8
:1002D400A1E058D0E0E08E2E9E2E0895AA93A88126
:1002E400AA3011F09B1448F0E0E0EA938394A82D1F
:1002F400DEDFA881AA3009F443C09394DE9AA88172
:10030400CADFDE983DC0BA93AA931A93E981FA81B1
:100314003196E983FA833197E4911E2FE03019F086
:10032400A12FDCDFF3CF188123960895AA93D39AE3
:10033400D29AD19AD09AD49AD69AD59ADC98DE9841
:10034400DD98B880E881E058E0930205E881E05444
:10035400E0930305A4E1B0E00E94D00118D017D0C7
:1003640016D0A0E273DF88EC90E00197F1F7A8E2E1
:1003740092DFA4E090DFA5E88EDFA6E08CDFA4DFA7
:100384002196089588DFA3E0B0E00C94D001A0E3A7
:100394005DDF88EC90E00197F1F70895109639F04D
:1003A40080ED97E00197F1F7A8951197C9F70895A3
:00000001FF
