:0E0000000C945C000C9400000C9400000C9416
:10000E0000000C9400000C9400000C9400000C9462
:10001E0000000C9400000C9400000C9400000C9452
:10002E0000000C9400000C9400000C9400000C9442
:10003E0000000C9400000C9400000C9400000C9432
:10004E0000000C9400000C9400000C9400000C9422
:10005E0000000C9400000C9400000C9400000C9412
:10006E0000000C9400000C9400000C9400000C9402
:10007E0000000C9400000C9400000C94000010275B
:10008E00E80364000A0001000010000110000100E6
:10009E0048454C4C4F20574F524C442020202000B6
:1000AE0080C002000005AE000000F894EE27ECBB05
:1000BE00F1E0F5BFE5BFE0936C008DE0A2E0BB2759
:1000CE00ED938A95E9F780E090E1A0E0B1E0ED9341
:1000DE000197E9F7E0EBF0E085919591009761F0DB
:1000EE00A591B59105901590BF01F00105900D9267
:1000FE000197E1F7FB01F0CF8BBFEFEFEDBFE0E132
:10010E00EEBFC0E0D5E00C948C008A98929A8B9842
:10011E00939A8C98949A8D98959AA0E196D055249E
:10012E00EFE05E1620F40E945B015394F9CF552444
:10013E00EFE05E1620F40E9469015394F9CFEFE0D0
:10014E005E2EE0E0E51520F40E9469015A94F9CF85
:10015E00EFE05E2EE0E0E51520F40E945B015A947C
:10016E00F9CFDDCFFFCFAA93E881E07111F0DB9AD2
:10017E0001C0DB98E881E07211F0DA9A01C0DA98DA
:10018E00E881E07411F0D99A01C0D998E881E0783D
:10019E0011F0D89A01C0D8988DE08A95F1F7DC9AC3
:1001AE008DE08A95F1F7DC988DE08A95F1F77AC0AB
:1001BE00AA93A881D8DFE881E295E883A881D3DFEE
:1001CE0085E88A95F1F76EC0AA93E881F0E0E050D9
:1001DE00FB4FE081A981AE0FEBDF4980788022963C
:1001EE000895A2E00E947701ACE0E2DFA1E00E9458
:1001FE007701E0E07E2E4E2E0895AA93A881AA30B4
:10020E0011F0461448F0E0E0EA937394A72DDCDF7A
:10021E00A881AA3009F446C04394DE9AA881C8DFAB
:10022E00DE9840C0BA93AA931A93E981FA81319667
:10023E00E983FA833197E4911E2FE03019F0A12F54
:10024E00DCDFF3CF188123960895AA93D39AD29A1E
:10025E00D19AD09AD49AD69AD59ADC98DE98DD980F
:10026E006880E881E058E0930205E881E054E0936D
:10027E000305A4E1B0E00E9485010E947D010E9469
:10028E007D010E947D01A0E26EDF88EC90E0019777
:10029E00F1F7A8E28DDFA4E08BDFA5E889DFA6E009
:1002AE0087DF9FDF219608950E94F8005A92A0E002
:1002BE000E94EB00AEE9B0E00E941901A8ECB0E09C
:1002CE000C9485010E94F8005A92A1E00E94EB0066
:1002DE00AEE9B0E00E941901A8ECB0E00C948501E3
:1002EE000E94DF00A3E0B0E00C948501A0E30E9421
:1002FE00BA0088EC90E00197F1F70895109639F066
:10030E0080ED97E00197F1F7A8951197C9F7089539
:00000001FF
